{
  "_format": "hh-sol-artifact-1",
  "contractName": "SocialMediaPlatform",
  "sourceName": "contracts/SocialMedia.sol",
  "abi": [
    {
      "inputs": [],
      "name": "AlreadyFollowing",
      "type": "error"
    },
    {
      "inputs": [],
      "name": "AlreadyLiked",
      "type": "error"
    },
    {
      "inputs": [],
      "name": "CannotFollowSelf",
      "type": "error"
    },
    {
      "inputs": [],
      "name": "ChatDoesNotExist",
      "type": "error"
    },
    {
      "inputs": [],
      "name": "ContentTooLong",
      "type": "error"
    },
    {
      "inputs": [],
      "name": "CooldownNotOver",
      "type": "error"
    },
    {
      "inputs": [],
      "name": "InvalidUsername",
      "type": "error"
    },
    {
      "inputs": [],
      "name": "NotChatParticipant",
      "type": "error"
    },
    {
      "inputs": [],
      "name": "NotFollowing",
      "type": "error"
    },
    {
      "inputs": [],
      "name": "NotLiked",
      "type": "error"
    },
    {
      "inputs": [],
      "name": "PostDoesNotExist",
      "type": "error"
    },
    {
      "inputs": [],
      "name": "UserAlreadyRegistered",
      "type": "error"
    },
    {
      "inputs": [],
      "name": "UserNotRegistered",
      "type": "error"
    },
    {
      "anonymous": false,
      "inputs": [
        {
          "indexed": true,
          "internalType": "uint256",
          "name": "chatId",
          "type": "uint256"
        },
        {
          "indexed": true,
          "internalType": "address",
          "name": "participant1",
          "type": "address"
        },
        {
          "indexed": true,
          "internalType": "address",
          "name": "participant2",
          "type": "address"
        }
      ],
      "name": "ChatCreated",
      "type": "event"
    },
    {
      "anonymous": false,
      "inputs": [
        {
          "indexed": true,
          "internalType": "uint256",
          "name": "postId",
          "type": "uint256"
        },
        {
          "indexed": true,
          "internalType": "address",
          "name": "commenter",
          "type": "address"
        },
        {
          "indexed": false,
          "internalType": "string",
          "name": "commentText",
          "type": "string"
        }
      ],
      "name": "CommentAdded",
      "type": "event"
    },
    {
      "anonymous": false,
      "inputs": [
        {
          "indexed": true,
          "internalType": "uint256",
          "name": "chatId",
          "type": "uint256"
        },
        {
          "indexed": true,
          "internalType": "address",
          "name": "sender",
          "type": "address"
        },
        {
          "indexed": false,
          "internalType": "string",
          "name": "content",
          "type": "string"
        }
      ],
      "name": "MessageSent",
      "type": "event"
    },
    {
      "anonymous": false,
      "inputs": [
        {
          "indexed": true,
          "internalType": "uint256",
          "name": "postId",
          "type": "uint256"
        },
        {
          "indexed": true,
          "internalType": "address",
          "name": "author",
          "type": "address"
        },
        {
          "indexed": false,
          "internalType": "string",
          "name": "content",
          "type": "string"
        },
        {
          "indexed": false,
          "internalType": "string",
          "name": "ipfsHash",
          "type": "string"
        }
      ],
      "name": "PostCreated",
      "type": "event"
    },
    {
      "anonymous": false,
      "inputs": [
        {
          "indexed": true,
          "internalType": "uint256",
          "name": "postId",
          "type": "uint256"
        },
        {
          "indexed": true,
          "internalType": "address",
          "name": "liker",
          "type": "address"
        }
      ],
      "name": "PostLiked",
      "type": "event"
    },
    {
      "anonymous": false,
      "inputs": [
        {
          "indexed": true,
          "internalType": "uint256",
          "name": "postId",
          "type": "uint256"
        },
        {
          "indexed": true,
          "internalType": "address",
          "name": "sharer",
          "type": "address"
        }
      ],
      "name": "PostShared",
      "type": "event"
    },
    {
      "anonymous": false,
      "inputs": [
        {
          "indexed": true,
          "internalType": "address",
          "name": "follower",
          "type": "address"
        },
        {
          "indexed": true,
          "internalType": "address",
          "name": "followed",
          "type": "address"
        }
      ],
      "name": "UserFollowed",
      "type": "event"
    },
    {
      "anonymous": false,
      "inputs": [
        {
          "indexed": true,
          "internalType": "address",
          "name": "user",
          "type": "address"
        }
      ],
      "name": "UserProfileUpdated",
      "type": "event"
    },
    {
      "anonymous": false,
      "inputs": [
        {
          "indexed": true,
          "internalType": "address",
          "name": "user",
          "type": "address"
        },
        {
          "indexed": false,
          "internalType": "string",
          "name": "username",
          "type": "string"
        }
      ],
      "name": "UserRegistered",
      "type": "event"
    },
    {
      "anonymous": false,
      "inputs": [
        {
          "indexed": true,
          "internalType": "address",
          "name": "follower",
          "type": "address"
        },
        {
          "indexed": true,
          "internalType": "address",
          "name": "unfollowed",
          "type": "address"
        }
      ],
      "name": "UserUnfollowed",
      "type": "event"
    },
    {
      "inputs": [],
      "name": "COMMENT_COOLDOWN",
      "outputs": [
        {
          "internalType": "uint256",
          "name": "",
          "type": "uint256"
        }
      ],
      "stateMutability": "view",
      "type": "function"
    },
    {
      "inputs": [],
      "name": "MAX_COMMENT_LENGTH",
      "outputs": [
        {
          "internalType": "uint256",
          "name": "",
          "type": "uint256"
        }
      ],
      "stateMutability": "view",
      "type": "function"
    },
    {
      "inputs": [],
      "name": "MAX_CONTENT_LENGTH",
      "outputs": [
        {
          "internalType": "uint256",
          "name": "",
          "type": "uint256"
        }
      ],
      "stateMutability": "view",
      "type": "function"
    },
    {
      "inputs": [],
      "name": "MAX_USERNAME_LENGTH",
      "outputs": [
        {
          "internalType": "uint256",
          "name": "",
          "type": "uint256"
        }
      ],
      "stateMutability": "view",
      "type": "function"
    },
    {
      "inputs": [],
      "name": "MESSAGE_COOLDOWN",
      "outputs": [
        {
          "internalType": "uint256",
          "name": "",
          "type": "uint256"
        }
      ],
      "stateMutability": "view",
      "type": "function"
    },
    {
      "inputs": [],
      "name": "POST_COOLDOWN",
      "outputs": [
        {
          "internalType": "uint256",
          "name": "",
          "type": "uint256"
        }
      ],
      "stateMutability": "view",
      "type": "function"
    },
    {
      "inputs": [
        {
          "internalType": "uint256",
          "name": "postId",
          "type": "uint256"
        },
        {
          "internalType": "string",
          "name": "commentText",
          "type": "string"
        }
      ],
      "name": "addComment",
      "outputs": [],
      "stateMutability": "nonpayable",
      "type": "function"
    },
    {
      "inputs": [
        {
          "internalType": "address",
          "name": "participant",
          "type": "address"
        }
      ],
      "name": "createChat",
      "outputs": [],
      "stateMutability": "nonpayable",
      "type": "function"
    },
    {
      "inputs": [
        {
          "internalType": "string",
          "name": "content",
          "type": "string"
        },
        {
          "internalType": "string",
          "name": "ipfsHash",
          "type": "string"
        }
      ],
      "name": "createPost",
      "outputs": [],
      "stateMutability": "nonpayable",
      "type": "function"
    },
    {
      "inputs": [
        {
          "internalType": "address",
          "name": "userToFollow",
          "type": "address"
        }
      ],
      "name": "followUser",
      "outputs": [],
      "stateMutability": "nonpayable",
      "type": "function"
    },
    {
      "inputs": [
        {
          "internalType": "uint256",
          "name": "chatId",
          "type": "uint256"
        }
      ],
      "name": "getChat",
      "outputs": [
        {
          "components": [
            {
              "internalType": "address",
              "name": "participant1",
              "type": "address"
            },
            {
              "internalType": "address",
              "name": "participant2",
              "type": "address"
            },
            {
              "internalType": "uint256",
              "name": "lastActivity",
              "type": "uint256"
            }
          ],
          "internalType": "struct SocialMediaPlatform.Chat",
          "name": "",
          "type": "tuple"
        }
      ],
      "stateMutability": "view",
      "type": "function"
    },
    {
      "inputs": [
        {
          "internalType": "uint256",
          "name": "chatId",
          "type": "uint256"
        },
        {
          "internalType": "uint256",
          "name": "limit",
          "type": "uint256"
        },
        {
          "internalType": "uint256",
          "name": "offset",
          "type": "uint256"
        }
      ],
      "name": "getChatMessages",
      "outputs": [
        {
          "components": [
            {
              "internalType": "address",
              "name": "sender",
              "type": "address"
            },
            {
              "internalType": "string",
              "name": "content",
              "type": "string"
            },
            {
              "internalType": "uint256",
              "name": "timestamp",
              "type": "uint256"
            },
            {
              "internalType": "bool",
              "name": "read",
              "type": "bool"
            }
          ],
          "internalType": "struct SocialMediaPlatform.Message[]",
          "name": "",
          "type": "tuple[]"
        }
      ],
      "stateMutability": "view",
      "type": "function"
    },
    {
      "inputs": [
        {
          "internalType": "address",
          "name": "user",
          "type": "address"
        }
      ],
      "name": "getChatWithUser",
      "outputs": [
        {
          "internalType": "uint256",
          "name": "",
          "type": "uint256"
        }
      ],
      "stateMutability": "view",
      "type": "function"
    },
    {
      "inputs": [
        {
          "internalType": "address",
          "name": "user",
          "type": "address"
        }
      ],
      "name": "getFollowers",
      "outputs": [
        {
          "internalType": "address[]",
          "name": "",
          "type": "address[]"
        }
      ],
      "stateMutability": "view",
      "type": "function"
    },
    {
      "inputs": [
        {
          "internalType": "address",
          "name": "user",
          "type": "address"
        }
      ],
      "name": "getFollowing",
      "outputs": [
        {
          "internalType": "address[]",
          "name": "",
          "type": "address[]"
        }
      ],
      "stateMutability": "view",
      "type": "function"
    },
    {
      "inputs": [
        {
          "internalType": "uint256",
          "name": "postId",
          "type": "uint256"
        }
      ],
      "name": "getPost",
      "outputs": [
        {
          "components": [
            {
              "internalType": "address",
              "name": "author",
              "type": "address"
            },
            {
              "internalType": "string",
              "name": "content",
              "type": "string"
            },
            {
              "internalType": "string",
              "name": "ipfsHash",
              "type": "string"
            },
            {
              "internalType": "uint256",
              "name": "timestamp",
              "type": "uint256"
            },
            {
              "internalType": "uint256",
              "name": "likeCount",
              "type": "uint256"
            },
            {
              "internalType": "uint256",
              "name": "commentCount",
              "type": "uint256"
            },
            {
              "internalType": "uint256",
              "name": "shareCount",
              "type": "uint256"
            }
          ],
          "internalType": "struct SocialMediaPlatform.Post",
          "name": "",
          "type": "tuple"
        }
      ],
      "stateMutability": "view",
      "type": "function"
    },
    {
      "inputs": [
        {
          "internalType": "uint256",
          "name": "postId",
          "type": "uint256"
        }
      ],
      "name": "getPostComments",
      "outputs": [
        {
          "components": [
            {
              "internalType": "address",
              "name": "commenter",
              "type": "address"
            },
            {
              "internalType": "string",
              "name": "commentText",
              "type": "string"
            },
            {
              "internalType": "uint256",
              "name": "timestamp",
              "type": "uint256"
            }
          ],
          "internalType": "struct SocialMediaPlatform.Comment[]",
          "name": "",
          "type": "tuple[]"
        }
      ],
      "stateMutability": "view",
      "type": "function"
    },
    {
      "inputs": [
        {
          "internalType": "uint256",
          "name": "postId",
          "type": "uint256"
        }
      ],
      "name": "getPostLikes",
      "outputs": [
        {
          "internalType": "address[]",
          "name": "",
          "type": "address[]"
        }
      ],
      "stateMutability": "view",
      "type": "function"
    },
    {
      "inputs": [],
      "name": "getTotalPosts",
      "outputs": [
        {
          "internalType": "uint256",
          "name": "",
          "type": "uint256"
        }
      ],
      "stateMutability": "view",
      "type": "function"
    },
    {
      "inputs": [],
      "name": "getUserChats",
      "outputs": [
        {
          "internalType": "uint256[]",
          "name": "",
          "type": "uint256[]"
        }
      ],
      "stateMutability": "view",
      "type": "function"
    },
    {
      "inputs": [
        {
          "internalType": "address",
          "name": "user",
          "type": "address"
        }
      ],
      "name": "getUserPosts",
      "outputs": [
        {
          "internalType": "uint256[]",
          "name": "",
          "type": "uint256[]"
        }
      ],
      "stateMutability": "view",
      "type": "function"
    },
    {
      "inputs": [
        {
          "internalType": "uint256",
          "name": "postId",
          "type": "uint256"
        }
      ],
      "name": "likePost",
      "outputs": [],
      "stateMutability": "nonpayable",
      "type": "function"
    },
    {
      "inputs": [
        {
          "internalType": "uint256",
          "name": "",
          "type": "uint256"
        }
      ],
      "name": "posts",
      "outputs": [
        {
          "internalType": "address",
          "name": "author",
          "type": "address"
        },
        {
          "internalType": "string",
          "name": "content",
          "type": "string"
        },
        {
          "internalType": "string",
          "name": "ipfsHash",
          "type": "string"
        },
        {
          "internalType": "uint256",
          "name": "timestamp",
          "type": "uint256"
        },
        {
          "internalType": "uint256",
          "name": "likeCount",
          "type": "uint256"
        },
        {
          "internalType": "uint256",
          "name": "commentCount",
          "type": "uint256"
        },
        {
          "internalType": "uint256",
          "name": "shareCount",
          "type": "uint256"
        }
      ],
      "stateMutability": "view",
      "type": "function"
    },
    {
      "inputs": [
        {
          "internalType": "string",
          "name": "username",
          "type": "string"
        }
      ],
      "name": "registerUser",
      "outputs": [],
      "stateMutability": "nonpayable",
      "type": "function"
    },
    {
      "inputs": [
        {
          "internalType": "uint256",
          "name": "chatId",
          "type": "uint256"
        },
        {
          "internalType": "string",
          "name": "content",
          "type": "string"
        }
      ],
      "name": "sendMessage",
      "outputs": [],
      "stateMutability": "nonpayable",
      "type": "function"
    },
    {
      "inputs": [
        {
          "internalType": "uint256",
          "name": "postId",
          "type": "uint256"
        }
      ],
      "name": "sharePost",
      "outputs": [],
      "stateMutability": "nonpayable",
      "type": "function"
    },
    {
      "inputs": [
        {
          "internalType": "address",
          "name": "userToUnfollow",
          "type": "address"
        }
      ],
      "name": "unfollowUser",
      "outputs": [],
      "stateMutability": "nonpayable",
      "type": "function"
    },
    {
      "inputs": [
        {
          "internalType": "uint256",
          "name": "postId",
          "type": "uint256"
        }
      ],
      "name": "unlikePost",
      "outputs": [],
      "stateMutability": "nonpayable",
      "type": "function"
    },
    {
      "inputs": [
        {
          "internalType": "string",
          "name": "profilePictureHash",
          "type": "string"
        }
      ],
      "name": "updateProfile",
      "outputs": [],
      "stateMutability": "nonpayable",
      "type": "function"
    },
    {
      "inputs": [
        {
          "internalType": "address",
          "name": "",
          "type": "address"
        }
      ],
      "name": "users",
      "outputs": [
        {
          "internalType": "string",
          "name": "username",
          "type": "string"
        },
        {
          "internalType": "string",
          "name": "profilePictureHash",
          "type": "string"
        },
        {
          "internalType": "bool",
          "name": "isRegistered",
          "type": "bool"
        },
        {
          "internalType": "uint256",
          "name": "registrationDate",
          "type": "uint256"
        }
      ],
      "stateMutability": "view",
      "type": "function"
    }
  ],
  "bytecode": "0x608060405234801561001057600080fd5b506129df806100206000396000f3fe608060405234801561001057600080fd5b50600436106101d95760003560e01c80637709cfd711610104578063b0b2671d116100a2578063f107cfcb11610071578063f107cfcb14610412578063f1f8fe2e14610425578063f5d7632014610468578063fa188de91461047b57600080fd5b8063b0b2671d146103ac578063c2fe2022146103cc578063d524ff76146103df578063d8236dff146103ff57600080fd5b8063a87430ba116100de578063a87430ba1461035b578063aa7e56831461037e578063aae8b59214610391578063ace446b3146103a457600080fd5b80637709cfd7146102ff5780639a2194a914610335578063a70806f71461034857600080fd5b8063392338f51161017c5780635fe226b41161014b5780635fe226b4146102bc57806368ecb844146102c4578063704f1b94146102d9578063725009d3146102ec57600080fd5b8063392338f51461026d5780633e4835a71461028057806340731c24146102935780635856e4fa146102b357600080fd5b80630b1e7f83116101b85780630b1e7f8314610217578063111f2a941461023d57806312851f15146102455780631cd896c11461026557600080fd5b80629299e3146101de57806304a7b094146101f357806305b746b51461020e575b600080fd5b6101f16101ec36600461233c565b61048e565b005b6101fb600a81565b6040519081526020015b60405180910390f35b6101fb6101f481565b61022a610225366004612379565b61050d565b60405161020597969594939291906123d8565b6101fb601e81565b610258610253366004612435565b610662565b6040516102059190612461565b6101fb603281565b6101f161027b3660046124f9565b610966565b6101f161028e36600461255d565b610b39565b6102a66102a1366004612379565b610d0b565b604051610205919061258d565b6101fb61011881565b6000546101fb565b6102cc610f0c565b604051610205919061260e565b6101f16102e736600461233c565b610fa2565b6101f16102fa366004612379565b6110bb565b6101fb61030d36600461255d565b336000908152600f602090815260408083206001600160a01b03949094168352929052205490565b6102cc61034336600461255d565b61121a565b6101f161035636600461255d565b611286565b61036e61036936600461255d565b611428565b6040516102059493929190612652565b6101f161038c36600461268b565b611564565b6101f161039f36600461268b565b611712565b6101fb600581565b6103bf6103ba366004612379565b61193d565b60405161020591906126c8565b6103bf6103da36600461255d565b6119e2565b6103f26103ed366004612379565b611a57565b6040516102059190612709565b6103bf61040d36600461255d565b611baa565b6101f161042036600461255d565b611c1e565b610438610433366004612379565b611eea565b6040805182516001600160a01b039081168252602080850151909116908201529181015190820152606001610205565b6101f1610476366004612379565b611fdc565b6101f1610489366004612379565b6120cc565b336000908152600260208190526040909120015460ff166104c257604051632163950f60e01b815260040160405180910390fd5b3360009081526002602052604090206001016104de828261280a565b5060405133907fa7dff163671e610b2bf8ca2e049a3f29bd4e483b11bed1545b16d733ff17780b90600090a250565b600360205260009081526040902080546001820180546001600160a01b03909216929161053990612787565b80601f016020809104026020016040519081016040528092919081815260200182805461056590612787565b80156105b25780601f10610587576101008083540402835291602001916105b2565b820191906000526020600020905b81548152906001019060200180831161059557829003601f168201915b5050505050908060020180546105c790612787565b80601f01602080910402602001604051908101604052809291908181526020018280546105f390612787565b80156106405780601f1061061557610100808354040283529160200191610640565b820191906000526020600020905b81548152906001019060200180831161062357829003601f168201915b5050505050908060030154908060040154908060050154908060060154905087565b6000838152600d602052604090205460609084906001600160a01b031661069c57604051638e04bce960e01b815260040160405180910390fd5b6000858152600d6020526040902080548691906001600160a01b031633148015906106d4575060018101546001600160a01b03163314155b156106f25760405163033f699b60e01b815260040160405180910390fd5b60008781526010602052604090205486818710610772576040805160008082526020820190925290610768565b610755604051806080016040528060006001600160a01b0316815260200160608152602001600081526020016000151581525090565b81526020019060019003908161071f5790505b509550505061095c565b8161077d89896128e0565b11156107905761078d87836128f9565b90505b60008167ffffffffffffffff8111156107ab576107ab612299565b60405190808252806020026020018201604052801561081257816020015b6107ff604051806080016040528060006001600160a01b0316815260200160608152602001600081526020016000151581525090565b8152602001906001900390816107c95790505b50905060005b828110156109565760008b8152601060205260409020610838828b6128e0565b815481106108485761084861290c565b6000918252602091829020604080516080810190915260049092020180546001600160a01b03168252600181018054929391929184019161088890612787565b80601f01602080910402602001604051908101604052809291908181526020018280546108b490612787565b80156109015780601f106108d657610100808354040283529160200191610901565b820191906000526020600020905b8154815290600101906020018083116108e457829003601f168201915b50505091835250506002820154602082015260039091015460ff16151560409091015282518390839081106109385761093861290c565b6020026020010181905250808061094e90612922565b915050610818565b50955050505b5050509392505050565b336000908152600260208190526040909120015460ff1661099a57604051632163950f60e01b815260040160405180910390fd5b816101f480825111156109c05760405163a743544560e01b815260040160405180910390fd5b336000908152600860205260409020546109dc90601e906128e0565b4210156109fc5760405163ae04b1c760e01b815260040160405180910390fd5b6000805490819080610a0d83612922565b90915550506040805160e081018252338152602080820188815282840188905242606084015260006080840181905260a0840181905260c084018190528581526003909252929020815181546001600160a01b0319166001600160a01b0390911617815591519091906001820190610a85908261280a565b5060408201516002820190610a9a908261280a565b50606082015160038201556080820151600482015560a0820151600582015560c0909101516006909101553360008181526007602090815260408083208054600181018255908452828420018590558383526008909152908190204290555182907f5475621b07408f75d49c828caa5aeacb3a5e98d3497e75730dc184677504401c90610b2a908990899061293b565b60405180910390a35050505050565b336000908152600260208190526040909120015460ff16610b6d57604051632163950f60e01b815260040160405180910390fd5b6001600160a01b0381166000908152600260208190526040909120015460ff16610baa57604051632163950f60e01b815260040160405180910390fd5b336001600160a01b03821603610bd357604051635056d97d60e11b815260040160405180910390fd5b336000908152600f602090815260408083206001600160a01b03851684529091529020548015610c01575050565b600180549081906000610c1383612922565b909155505060408051606081018252338082526001600160a01b038681166020808501828152428688019081526000898152600d8452888120975188549087166001600160a01b031991821617895592516001808a01805492909816919094161790955551600290960195909555838352600e81528583208054808701825590845281842001879055818352858320805495860181558352808320909401869055828252600f8085528583208284528552858320879055845284822083835290935283812085905592519192909184917f72fbd067bdb3eb8059ac4de434887e299ce800805ab417889339ee665b3c036291a4505050565b610d546040518060e0016040528060006001600160a01b031681526020016060815260200160608152602001600081526020016000815260200160008152602001600081525090565b60008281526003602052604090205482906001600160a01b0316610d8b5760405163091e12db60e21b815260040160405180910390fd5b600083815260036020908152604091829020825160e0810190935280546001600160a01b031683526001810180549192840191610dc790612787565b80601f0160208091040260200160405190810160405280929190818152602001828054610df390612787565b8015610e405780601f10610e1557610100808354040283529160200191610e40565b820191906000526020600020905b815481529060010190602001808311610e2357829003601f168201915b50505050508152602001600282018054610e5990612787565b80601f0160208091040260200160405190810160405280929190818152602001828054610e8590612787565b8015610ed25780601f10610ea757610100808354040283529160200191610ed2565b820191906000526020600020905b815481529060010190602001808311610eb557829003601f168201915b5050505050815260200160038201548152602001600482015481526020016005820154815260200160068201548152505091505b50919050565b336000908152600260208190526040909120015460609060ff16610f4357604051632163950f60e01b815260040160405180910390fd5b336000908152600e602090815260409182902080548351818402810184019094528084529091830182828015610f9857602002820191906000526020600020905b815481526020019060010190808311610f84575b5050505050905090565b8060328082511115610fc75760405163a743544560e01b815260040160405180910390fd5b336000908152600260208190526040909120015460ff1615610ffc57604051634f2532fb60e11b815260040160405180910390fd5b60408051608081018252848152815160208181018452600080835281840192909252600183850152426060840152338252600290529190912081518190611043908261280a565b5060208201516001820190611058908261280a565b5060408281015160028301805460ff19169115159190911790556060909201516003909101555133907f48cac28ad4dc618e15f4c2dd5e97751182f166de97b25618318b2112aa951a2f906110ae908690612969565b60405180910390a2505050565b336000908152600260208190526040909120015460ff166110ef57604051632163950f60e01b815260040160405180910390fd5b60008181526003602052604090205481906001600160a01b03166111265760405163091e12db60e21b815260040160405180910390fd5b6000828152600560205260408120905b81548110156111a057336001600160a01b031682828154811061115b5761115b61290c565b6000918252602090912001546001600160a01b03160361118e576040516322aba90d60e01b815260040160405180910390fd5b8061119881612922565b915050611136565b5060008381526003602052604081206004018054916111be83612922565b9091555050805460018101825560008281526020812090910180546001600160a01b03191633908117909155604051909185917fcf765d6f163c9b0d832e2a94f4c8e9bffd32a2c3ca5fdbb8cc67b5fe1441f4139190a3505050565b6001600160a01b03811660009081526007602090815260409182902080548351818402810184019094528084526060939283018282801561127a57602002820191906000526020600020905b815481526020019060010190808311611266575b50505050509050919050565b336000908152600260208190526040909120015460ff166112ba57604051632163950f60e01b815260040160405180910390fd5b336001600160a01b038216036112e357604051635056d97d60e11b815260040160405180910390fd5b6001600160a01b0381166000908152600260208190526040909120015460ff1661132057604051632163950f60e01b815260040160405180910390fd5b336000908152600c60205260408120905b815481101561139b57826001600160a01b03168282815481106113565761135661290c565b6000918252602090912001546001600160a01b0316036113895760405163118c13c960e21b815260040160405180910390fd5b8061139381612922565b915050611331565b506001600160a01b0382166000818152600b60209081526040808320805460018082018355918552838520018054336001600160a01b03199182168117909255818652600c8552838620805493840181558652938520909101805490931685179092555190917f30b3435b456f45779984ddfa456115ee4c20d9e446979b1b9e90dbb7e12b90b791a35050565b60026020526000908152604090208054819061144390612787565b80601f016020809104026020016040519081016040528092919081815260200182805461146f90612787565b80156114bc5780601f10611491576101008083540402835291602001916114bc565b820191906000526020600020905b81548152906001019060200180831161149f57829003601f168201915b5050505050908060010180546114d190612787565b80601f01602080910402602001604051908101604052809291908181526020018280546114fd90612787565b801561154a5780601f1061151f5761010080835404028352916020019161154a565b820191906000526020600020905b81548152906001019060200180831161152d57829003601f168201915b505050506002830154600390930154919260ff1691905084565b336000908152600260208190526040909120015460ff1661159857604051632163950f60e01b815260040160405180910390fd5b60008281526003602052604090205482906001600160a01b03166115cf5760405163091e12db60e21b815260040160405180910390fd5b8161011880825111156115f55760405163a743544560e01b815260040160405180910390fd5b3360009081526009602052604090205461161190600a906128e0565b4210156116315760405163ae04b1c760e01b815260040160405180910390fd5b60008581526004602090815260408083208151606081018352338152808401898152429382019390935281546001808201845592865293909420845160039094020180546001600160a01b0319166001600160a01b039094169390931783559051908201906116a0908261280a565b50604091820151600290910155600086815260036020529081206005018054916116c983612922565b909155505033600081815260096020526040908190204290555186907fcc2d7dd2085ae6644799a42c0174adf9afc10a43f26db5eac3ddd1f96d1d64be90610b2a908890612969565b336000908152600260208190526040909120015460ff1661174657604051632163950f60e01b815260040160405180910390fd5b6000828152600d602052604090205482906001600160a01b031661177d57604051638e04bce960e01b815260040160405180910390fd5b6000838152600d6020526040902080548491906001600160a01b031633148015906117b5575060018101546001600160a01b03163314155b156117d35760405163033f699b60e01b815260040160405180910390fd5b836101f480825111156117f95760405163a743544560e01b815260040160405180910390fd5b336000908152600a6020526040902054611815906005906128e0565b4210156118355760405163ae04b1c760e01b815260040160405180910390fd5b600087815260106020908152604080832081516080810183523381528084018b815242938201939093526060810185905281546001808201845592865293909420845160049094020180546001600160a01b0319166001600160a01b039094169390931783559051908201906118ab908261280a565b506040828101516002838101919091556060909301516003909201805460ff1916921515929092179091556000898152600d602090815282822042940184905533808352600a90915290829020929092555188907fa758af4732a8088ab75915c760fabb11b22db520c32f4ee5cdc6651c268d3afa9061192c908a90612969565b60405180910390a350505050505050565b60008181526003602052604090205460609082906001600160a01b03166119775760405163091e12db60e21b815260040160405180910390fd5b600083815260056020908152604091829020805483518184028101840190945280845290918301828280156119d557602002820191906000526020600020905b81546001600160a01b031681526001909101906020018083116119b7575b5050505050915050919050565b6001600160a01b0381166000908152600b602090815260409182902080548351818402810184019094528084526060939283018282801561127a57602002820191906000526020600020905b81546001600160a01b03168152600190910190602001808311611a2e5750505050509050919050565b60008181526003602052604090205460609082906001600160a01b0316611a915760405163091e12db60e21b815260040160405180910390fd5b600083815260046020908152604080832080548251818502810185019093528083529193909284015b82821015611b9e57600084815260209081902060408051606081019091526003850290910180546001600160a01b031682526001810180549293919291840191611b0390612787565b80601f0160208091040260200160405190810160405280929190818152602001828054611b2f90612787565b8015611b7c5780601f10611b5157610100808354040283529160200191611b7c565b820191906000526020600020905b815481529060010190602001808311611b5f57829003601f168201915b5050505050815260200160028201548152505081526020019060010190611aba565b50505050915050919050565b6001600160a01b0381166000908152600c602090815260409182902080548351818402810184019094528084526060939283018282801561127a576020028201919060005260206000209081546001600160a01b03168152600190910190602001808311611a2e5750505050509050919050565b336000908152600260208190526040909120015460ff16611c5257604051632163950f60e01b815260040160405180910390fd5b336000908152600c6020526040812090805b8254811015611d6e57836001600160a01b0316838281548110611c8957611c8961290c565b6000918252602090912001546001600160a01b031603611d5c5782548390611cb3906001906128f9565b81548110611cc357611cc361290c565b9060005260206000200160009054906101000a90046001600160a01b0316838281548110611cf357611cf361290c565b9060005260206000200160006101000a8154816001600160a01b0302191690836001600160a01b0316021790555082805480611d3157611d3161297c565b600082815260209020810160001990810180546001600160a01b031916905501905560019150611d6e565b80611d6681612922565b915050611c64565b5080611d8d576040516322d9eef360e21b815260040160405180910390fd5b6001600160a01b0383166000908152600b60205260408120905b8154811015611ead57336001600160a01b0316828281548110611dcc57611dcc61290c565b6000918252602090912001546001600160a01b031603611e9b5781548290611df6906001906128f9565b81548110611e0657611e0661290c565b9060005260206000200160009054906101000a90046001600160a01b0316828281548110611e3657611e3661290c565b9060005260206000200160006101000a8154816001600160a01b0302191690836001600160a01b0316021790555081805480611e7457611e7461297c565b600082815260209020810160001990810180546001600160a01b0319169055019055611ead565b80611ea581612922565b915050611da7565b506040516001600160a01b0385169033907fe7339343c6edff57f2d15278c419523844cea30ae5ee2146aa22cb9e3107dab790600090a350505050565b60408051606081018252600080825260208201819052918101919091526000828152600d602052604090205482906001600160a01b0316611f3e57604051638e04bce960e01b815260040160405180910390fd5b6000838152600d6020526040902080548491906001600160a01b03163314801590611f76575060018101546001600160a01b03163314155b15611f945760405163033f699b60e01b815260040160405180910390fd5b505050600091825250600d6020908152604091829020825160608101845281546001600160a01b03908116825260018301541692810192909252600201549181019190915290565b336000908152600260208190526040909120015460ff1661201057604051632163950f60e01b815260040160405180910390fd5b60008181526003602052604090205481906001600160a01b03166120475760405163091e12db60e21b815260040160405180910390fd5b600082815260036020526040812060060180549161206483612922565b90915550506000828152600660209081526040808320805460018101825590845291832090910180546001600160a01b031916339081179091559051909184917f9ad6b9c25fe64910aa38489f778ed1d1334a3f784d3aeedc050948b26115f8699190a35050565b336000908152600260208190526040909120015460ff1661210057604051632163950f60e01b815260040160405180910390fd5b60008181526003602052604090205481906001600160a01b03166121375760405163091e12db60e21b815260040160405180910390fd5b600082815260056020526040812090805b825481101561225257336001600160a01b031683828154811061216d5761216d61290c565b6000918252602090912001546001600160a01b0316036122405782548390612197906001906128f9565b815481106121a7576121a761290c565b9060005260206000200160009054906101000a90046001600160a01b03168382815481106121d7576121d761290c565b9060005260206000200160006101000a8154816001600160a01b0302191690836001600160a01b03160217905550828054806122155761221561297c565b600082815260209020810160001990810180546001600160a01b031916905501905560019150612252565b8061224a81612922565b915050612148565b508061227157604051630412ecf360e41b815260040160405180910390fd5b600084815260036020526040812060040180549161228e83612992565b919050555050505050565b634e487b7160e01b600052604160045260246000fd5b600082601f8301126122c057600080fd5b813567ffffffffffffffff808211156122db576122db612299565b604051601f8301601f19908116603f0116810190828211818310171561230357612303612299565b8160405283815286602085880101111561231c57600080fd5b836020870160208301376000602085830101528094505050505092915050565b60006020828403121561234e57600080fd5b813567ffffffffffffffff81111561236557600080fd5b612371848285016122af565b949350505050565b60006020828403121561238b57600080fd5b5035919050565b6000815180845260005b818110156123b85760208185018101518683018201520161239c565b506000602082860101526020601f19601f83011685010191505092915050565b6001600160a01b038816815260e0602082018190526000906123fc90830189612392565b828103604084015261240e8189612392565b9150508560608301528460808301528360a08301528260c083015298975050505050505050565b60008060006060848603121561244a57600080fd5b505081359360208301359350604090920135919050565b60006020808301818452808551808352604092508286019150828160051b87010184880160005b838110156124eb57888303603f19018552815180516001600160a01b03168452878101516080898601819052906124c182870182612392565b838a0151878b01526060938401511515939096019290925250509386019390860190600101612488565b509098975050505050505050565b6000806040838503121561250c57600080fd5b823567ffffffffffffffff8082111561252457600080fd5b612530868387016122af565b9350602085013591508082111561254657600080fd5b50612553858286016122af565b9150509250929050565b60006020828403121561256f57600080fd5b81356001600160a01b038116811461258657600080fd5b9392505050565b602080825282516001600160a01b03168282015282015160e060408301526000906125bc610100840182612392565b90506040840151601f198483030160608501526125d98282612392565b91505060608401516080840152608084015160a084015260a084015160c084015260c084015160e08401528091505092915050565b6020808252825182820181905260009190848201906040850190845b818110156126465783518352928401929184019160010161262a565b50909695505050505050565b6080815260006126656080830187612392565b82810360208401526126778187612392565b941515604084015250506060015292915050565b6000806040838503121561269e57600080fd5b82359150602083013567ffffffffffffffff8111156126bc57600080fd5b612553858286016122af565b6020808252825182820181905260009190848201906040850190845b818110156126465783516001600160a01b0316835292840192918401916001016126e4565b60006020808301818452808551808352604092508286019150828160051b87010184880160005b838110156124eb57888303603f19018552815180516001600160a01b031684528781015160608986018190529061276982870182612392565b92890151958901959095525094870194925090860190600101612730565b600181811c9082168061279b57607f821691505b602082108103610f0657634e487b7160e01b600052602260045260246000fd5b601f82111561280557600081815260208120601f850160051c810160208610156127e25750805b601f850160051c820191505b81811015612801578281556001016127ee565b5050505b505050565b815167ffffffffffffffff81111561282457612824612299565b612838816128328454612787565b846127bb565b602080601f83116001811461286d57600084156128555750858301515b600019600386901b1c1916600185901b178555612801565b600085815260208120601f198616915b8281101561289c5788860151825594840194600190910190840161287d565b50858210156128ba5787850151600019600388901b60f8161c191681555b5050505050600190811b01905550565b634e487b7160e01b600052601160045260246000fd5b808201808211156128f3576128f36128ca565b92915050565b818103818111156128f3576128f36128ca565b634e487b7160e01b600052603260045260246000fd5b600060018201612934576129346128ca565b5060010190565b60408152600061294e6040830185612392565b82810360208401526129608185612392565b95945050505050565b6020815260006125866020830184612392565b634e487b7160e01b600052603160045260246000fd5b6000816129a1576129a16128ca565b50600019019056fea2646970667358221220abfe649a35823b47348d04d5d2a472bb96a695674d735536d90c746f8c2db0f964736f6c63430008130033",
  "linkReferences": {},
  "deployedLinkReferences": {}
}